{
  "_format": "hh-sol-artifact-1",
  "contractName": "AgoraMarket",
  "sourceName": "contracts/Agora.sol",
  "abi": [
    {
      "inputs": [],
      "stateMutability": "nonpayable",
      "type": "constructor"
    },
    {
      "anonymous": false,
      "inputs": [
        {
          "indexed": true,
          "internalType": "uint256",
          "name": "planetIndex",
          "type": "uint256"
        },
        {
          "indexed": false,
          "internalType": "uint256",
          "name": "mineralIndex",
          "type": "uint256"
        },
        {
          "indexed": false,
          "internalType": "uint256",
          "name": "supply",
          "type": "uint256"
        }
      ],
      "name": "AddPlanet",
      "type": "event"
    },
    {
      "anonymous": false,
      "inputs": [
        {
          "indexed": true,
          "internalType": "uint256",
          "name": "planetIndex",
          "type": "uint256"
        },
        {
          "indexed": true,
          "internalType": "uint256",
          "name": "mineralIndex",
          "type": "uint256"
        },
        {
          "indexed": false,
          "internalType": "uint256",
          "name": "price",
          "type": "uint256"
        }
      ],
      "name": "PurchaseMineral",
      "type": "event"
    },
    {
      "anonymous": false,
      "inputs": [
        {
          "indexed": true,
          "internalType": "uint256",
          "name": "mineralIndex",
          "type": "uint256"
        },
        {
          "indexed": false,
          "internalType": "uint256",
          "name": "price",
          "type": "uint256"
        }
      ],
      "name": "UpdateMineralPrice",
      "type": "event"
    },
    {
      "inputs": [
        {
          "internalType": "uint256",
          "name": "_mineral",
          "type": "uint256"
        },
        {
          "internalType": "uint256",
          "name": "_supply",
          "type": "uint256"
        }
      ],
      "name": "addPlanet",
      "outputs": [],
      "stateMutability": "nonpayable",
      "type": "function"
    },
    {
      "inputs": [],
      "name": "getAllMinerals",
      "outputs": [
        {
          "internalType": "uint256[]",
          "name": "",
          "type": "uint256[]"
        }
      ],
      "stateMutability": "view",
      "type": "function"
    },
    {
      "inputs": [],
      "name": "getAllPlanets",
      "outputs": [
        {
          "components": [
            {
              "internalType": "address payable",
              "name": "owner",
              "type": "address"
            },
            {
              "internalType": "uint256",
              "name": "mineral",
              "type": "uint256"
            },
            {
              "internalType": "uint256",
              "name": "supply",
              "type": "uint256"
            }
          ],
          "internalType": "struct AgoraMarket.Planet[]",
          "name": "",
          "type": "tuple[]"
        }
      ],
      "stateMutability": "view",
      "type": "function"
    },
    {
      "inputs": [
        {
          "internalType": "uint256",
          "name": "_mineralIndex",
          "type": "uint256"
        }
      ],
      "name": "getMineral",
      "outputs": [
        {
          "internalType": "uint256",
          "name": "",
          "type": "uint256"
        }
      ],
      "stateMutability": "view",
      "type": "function"
    },
    {
      "inputs": [
        {
          "internalType": "uint256",
          "name": "_planetIndex",
          "type": "uint256"
        }
      ],
      "name": "getPlanet",
      "outputs": [
        {
          "components": [
            {
              "internalType": "address payable",
              "name": "owner",
              "type": "address"
            },
            {
              "internalType": "uint256",
              "name": "mineral",
              "type": "uint256"
            },
            {
              "internalType": "uint256",
              "name": "supply",
              "type": "uint256"
            }
          ],
          "internalType": "struct AgoraMarket.Planet",
          "name": "",
          "type": "tuple"
        }
      ],
      "stateMutability": "view",
      "type": "function"
    },
    {
      "inputs": [],
      "name": "owner",
      "outputs": [
        {
          "internalType": "address payable",
          "name": "",
          "type": "address"
        }
      ],
      "stateMutability": "view",
      "type": "function"
    },
    {
      "inputs": [
        {
          "internalType": "uint256",
          "name": "_planetIndex",
          "type": "uint256"
        },
        {
          "internalType": "uint256",
          "name": "_mineralIndex",
          "type": "uint256"
        },
        {
          "internalType": "uint256",
          "name": "_quantity",
          "type": "uint256"
        }
      ],
      "name": "purchaseMineralFromPlanet",
      "outputs": [],
      "stateMutability": "payable",
      "type": "function"
    },
    {
      "inputs": [
        {
          "internalType": "uint256",
          "name": "_mineralIndex",
          "type": "uint256"
        },
        {
          "internalType": "uint256",
          "name": "price",
          "type": "uint256"
        }
      ],
      "name": "updateMineralPrice",
      "outputs": [],
      "stateMutability": "nonpayable",
      "type": "function"
    }
  ],
  "bytecode": "0x60806040526000805534801561001457600080fd5b5033600360006101000a81548173ffffffffffffffffffffffffffffffffffffffff021916908373ffffffffffffffffffffffffffffffffffffffff160217905550662386f26fc10000600160008081526020019081526020016000208190555066470de4df820000600160006001815260200190815260200160002081905550666a94d74f430000600160006002815260200190815260200160002081905550668e1bc9bf04000060016000600381526020019081526020016000208190555061107f806100e46000396000f3fe60806040526004361061007b5760003560e01c8063c6754fcd1161004e578063c6754fcd1461012f578063e292ee7d1461015a578063f2b2999314610183578063f73e3ac1146101c05761007b565b806334efcb8e146100805780636a23befb146100bd5780638da5cb5b146100e8578063a8212c8b14610113575b600080fd5b34801561008c57600080fd5b506100a760048036038101906100a291906108d9565b6101e9565b6040516100b49190610998565b60405180910390f35b3480156100c957600080fd5b506100d2610280565b6040516100df9190610aa4565b60405180910390f35b3480156100f457600080fd5b506100fd6103a9565b60405161010a9190610ad5565b60405180910390f35b61012d60048036038101906101289190610af0565b6103cf565b005b34801561013b57600080fd5b5061014461057f565b6040516101519190610bf2565b60405180910390f35b34801561016657600080fd5b50610181600480360381019061017c9190610c14565b610629565b005b34801561018f57600080fd5b506101aa60048036038101906101a591906108d9565b6107b3565b6040516101b79190610c63565b60405180910390f35b3480156101cc57600080fd5b506101e760048036038101906101e29190610c14565b6107d0565b005b6101f1610867565b600260008381526020019081526020016000206040518060600160405290816000820160009054906101000a900473ffffffffffffffffffffffffffffffffffffffff1673ffffffffffffffffffffffffffffffffffffffff1673ffffffffffffffffffffffffffffffffffffffff168152602001600182015481526020016002820154815250509050919050565b60606000805467ffffffffffffffff81111561029f5761029e610c7e565b5b6040519080825280602002602001820160405280156102d857816020015b6102c5610867565b8152602001906001900390816102bd5790505b50905060005b6000548110156103a157600260008281526020019081526020016000206040518060600160405290816000820160009054906101000a900473ffffffffffffffffffffffffffffffffffffffff1673ffffffffffffffffffffffffffffffffffffffff1673ffffffffffffffffffffffffffffffffffffffff1681526020016001820154815260200160028201548152505082828151811061038357610382610cad565b5b6020026020010181905250808061039990610d0b565b9150506102de565b508091505090565b600360009054906101000a900473ffffffffffffffffffffffffffffffffffffffff1681565b6000548310610413576040517f08c379a000000000000000000000000000000000000000000000000000000000815260040161040a90610db0565b60405180910390fd5b60048210610456576040517f08c379a000000000000000000000000000000000000000000000000000000000815260040161044d90610e1c565b60405180910390fd5b6000600160008481526020019081526020016000205490503373ffffffffffffffffffffffffffffffffffffffff163181106104c7576040517f08c379a00000000000000000000000000000000000000000000000000000000081526004016104be90610e88565b60405180910390fd5b600060026000868152602001908152602001600020905080600201548310610524576040517f08c379a000000000000000000000000000000000000000000000000000000000815260040161051b90610ef4565b60405180910390fd5b828160020160008282546105389190610f14565b9250508190555083857fb9c28e90c1b517619b54a4609adcdf76db8324731e273d7999fd2e4b4c323c38856040516105709190610c63565b60405180910390a35050505050565b60606000600467ffffffffffffffff81111561059e5761059d610c7e565b5b6040519080825280602002602001820160405280156105cc5781602001602082028036833780820191505090505b50905060005b600481101561062157600160008281526020019081526020016000205482828151811061060257610601610cad565b5b602002602001018181525050808061061990610d0b565b9150506105d2565b508091505090565b600360009054906101000a900473ffffffffffffffffffffffffffffffffffffffff1673ffffffffffffffffffffffffffffffffffffffff163373ffffffffffffffffffffffffffffffffffffffff16146106b9576040517f08c379a00000000000000000000000000000000000000000000000000000000081526004016106b090610f94565b60405180910390fd5b60405180606001604052803373ffffffffffffffffffffffffffffffffffffffff16815260200183815260200182815250600260008054815260200190815260200160002060008201518160000160006101000a81548173ffffffffffffffffffffffffffffffffffffffff021916908373ffffffffffffffffffffffffffffffffffffffff16021790555060208201518160010155604082015181600201559050506000547f7bf5e85999fc9c42129ffe2446ac13f07117e1ac7b14ea8562d954c15fa2097a8383604051610790929190610fb4565b60405180910390a26000808154809291906107aa90610d0b565b91905055505050565b600060016000838152602001908152602001600020549050919050565b60048210610813576040517f08c379a000000000000000000000000000000000000000000000000000000000815260040161080a90611029565b60405180910390fd5b806001600084815260200190815260200160002081905550817f6cf3f9cb0aa0c8ea34a05ee50b339d84d201d1ba56ea161729e5c48731834a1d8260405161085b9190610c63565b60405180910390a25050565b6040518060600160405280600073ffffffffffffffffffffffffffffffffffffffff16815260200160008152602001600081525090565b600080fd5b6000819050919050565b6108b6816108a3565b81146108c157600080fd5b50565b6000813590506108d3816108ad565b92915050565b6000602082840312156108ef576108ee61089e565b5b60006108fd848285016108c4565b91505092915050565b600073ffffffffffffffffffffffffffffffffffffffff82169050919050565b600061093182610906565b9050919050565b61094181610926565b82525050565b610950816108a3565b82525050565b60608201600082015161096c6000850182610938565b50602082015161097f6020850182610947565b5060408201516109926040850182610947565b50505050565b60006060820190506109ad6000830184610956565b92915050565b600081519050919050565b600082825260208201905092915050565b6000819050602082019050919050565b6060820160008201516109f56000850182610938565b506020820151610a086020850182610947565b506040820151610a1b6040850182610947565b50505050565b6000610a2d83836109df565b60608301905092915050565b6000602082019050919050565b6000610a51826109b3565b610a5b81856109be565b9350610a66836109cf565b8060005b83811015610a97578151610a7e8882610a21565b9750610a8983610a39565b925050600181019050610a6a565b5085935050505092915050565b60006020820190508181036000830152610abe8184610a46565b905092915050565b610acf81610926565b82525050565b6000602082019050610aea6000830184610ac6565b92915050565b600080600060608486031215610b0957610b0861089e565b5b6000610b17868287016108c4565b9350506020610b28868287016108c4565b9250506040610b39868287016108c4565b9150509250925092565b600081519050919050565b600082825260208201905092915050565b6000819050602082019050919050565b6000610b7b8383610947565b60208301905092915050565b6000602082019050919050565b6000610b9f82610b43565b610ba98185610b4e565b9350610bb483610b5f565b8060005b83811015610be5578151610bcc8882610b6f565b9750610bd783610b87565b925050600181019050610bb8565b5085935050505092915050565b60006020820190508181036000830152610c0c8184610b94565b905092915050565b60008060408385031215610c2b57610c2a61089e565b5b6000610c39858286016108c4565b9250506020610c4a858286016108c4565b9150509250929050565b610c5d816108a3565b82525050565b6000602082019050610c786000830184610c54565b92915050565b7f4e487b7100000000000000000000000000000000000000000000000000000000600052604160045260246000fd5b7f4e487b7100000000000000000000000000000000000000000000000000000000600052603260045260246000fd5b7f4e487b7100000000000000000000000000000000000000000000000000000000600052601160045260246000fd5b6000610d16826108a3565b91507fffffffffffffffffffffffffffffffffffffffffffffffffffffffffffffffff8203610d4857610d47610cdc565b5b600182019050919050565b600082825260208201905092915050565b7f4e6f7420612076616c696420706c616e6574206d61726b657400000000000000600082015250565b6000610d9a601983610d53565b9150610da582610d64565b602082019050919050565b60006020820190508181036000830152610dc981610d8d565b9050919050565b7f4e6f7420612076616c6964206d696e6572616c20696e64657800000000000000600082015250565b6000610e06601983610d53565b9150610e1182610dd0565b602082019050919050565b60006020820190508181036000830152610e3581610df9565b9050919050565b7f4e6f7420656e6f7567682062616c616e63650000000000000000000000000000600082015250565b6000610e72601283610d53565b9150610e7d82610e3c565b602082019050919050565b60006020820190508181036000830152610ea181610e65565b9050919050565b7f4e6f7420656e6f75676820737570706c79000000000000000000000000000000600082015250565b6000610ede601183610d53565b9150610ee982610ea8565b602082019050919050565b60006020820190508181036000830152610f0d81610ed1565b9050919050565b6000610f1f826108a3565b9150610f2a836108a3565b9250828203905081811115610f4257610f41610cdc565b5b92915050565b7f4f6e6c79206f776e65722063616e2063616c6c20746869730000000000000000600082015250565b6000610f7e601883610d53565b9150610f8982610f48565b602082019050919050565b60006020820190508181036000830152610fad81610f71565b9050919050565b6000604082019050610fc96000830185610c54565b610fd66020830184610c54565b9392505050565b7f4e6f7420612076616c6964206d696e6572616c00000000000000000000000000600082015250565b6000611013601383610d53565b915061101e82610fdd565b602082019050919050565b6000602082019050818103600083015261104281611006565b905091905056fea2646970667358221220839bebab7ab7898837648b5d0c228f1061480bf9ee3d107e65ac7f15779da87664736f6c63430008110033",
  "linkReferences": {},
  "deployedLinkReferences": {}
}